{
  "contractName": "SitesVotes",
  "abi": [
    {
      "anonymous": false,
      "inputs": [
        {
          "indexed": true,
          "name": "CC",
          "type": "uint256"
        },
        {
          "indexed": true,
          "name": "escru",
          "type": "address"
        }
      ],
      "name": "Votar",
      "type": "event"
    },
    {
      "constant": false,
      "inputs": [
        {
          "name": "CC",
          "type": "uint256"
        }
      ],
      "name": "registroVotante",
      "outputs": [
        {
          "name": "",
          "type": "bool"
        }
      ],
      "payable": false,
      "stateMutability": "nonpayable",
      "type": "function"
    },
    {
      "constant": false,
      "inputs": [
        {
          "name": "CC",
          "type": "uint256"
        },
        {
          "name": "escru",
          "type": "address"
        }
      ],
      "name": "votar",
      "outputs": [
        {
          "name": "",
          "type": "bool"
        }
      ],
      "payable": false,
      "stateMutability": "nonpayable",
      "type": "function"
    },
    {
      "constant": true,
      "inputs": [
        {
          "name": "CC",
          "type": "uint256"
        }
      ],
      "name": "votantesResgistrados",
      "outputs": [
        {
          "name": "",
          "type": "bool"
        },
        {
          "name": "",
          "type": "uint256"
        }
      ],
      "payable": false,
      "stateMutability": "view",
      "type": "function"
    },
    {
      "constant": true,
      "inputs": [
        {
          "name": "escru",
          "type": "address"
        }
      ],
      "name": "balanceEscrutinio",
      "outputs": [
        {
          "name": "totalVotos",
          "type": "uint256"
        }
      ],
      "payable": false,
      "stateMutability": "view",
      "type": "function"
    }
  ],
  "bytecode": "0x608060405234801561001057600080fd5b506103fc806100206000396000f300608060405260043610610062576000357c0100000000000000000000000000000000000000000000000000000000900463ffffffff1680630324e2f11461006757806319fb42e3146100ac578063b69c52ba146100f8578063e353e97f1461014f575b600080fd5b34801561007357600080fd5b50610092600480360381019080803590602001909291905050506101b4565b604051808215151515815260200191505060405180910390f35b3480156100b857600080fd5b506100d760048036038101908080359060200190929190505050610231565b60405180831515151581526020018281526020019250505060405180910390f35b34801561010457600080fd5b50610139600480360381019080803573ffffffffffffffffffffffffffffffffffffffff169060200190929190505050610271565b6040518082815260200191505060405180910390f35b34801561015b57600080fd5b5061019a60048036038101908080359060200190929190803573ffffffffffffffffffffffffffffffffffffffff1690602001909291905050506102ba565b604051808215151515815260200191505060405180910390f35b600080600083815260200190815260200160002060009054906101000a900460ff16156101e4576000905061022c565b600160008084815260200190815260200160002060006101000a81548160ff021916908315150217905550600180600084815260200190815260200160002081905550600190505b919050565b60008060008084815260200190815260200160002060009054906101000a900460ff16600160008581526020019081526020016000205491509150915091565b6000600260008373ffffffffffffffffffffffffffffffffffffffff1673ffffffffffffffffffffffffffffffffffffffff168152602001908152602001600020549050919050565b600080600084815260200190815260200160002060009054906101000a900460ff1680156102fa5750600180600085815260200190815260200160002054145b156103c5576001600084815260200190815260200160002054600260008473ffffffffffffffffffffffffffffffffffffffff1673ffffffffffffffffffffffffffffffffffffffff16815260200190815260200160002060008282540192505081905550600060016000858152602001908152602001600020819055508173ffffffffffffffffffffffffffffffffffffffff16837f95629c68cbdd20550aa6f2852533a4c68399d603a1d657504fe2d58176a0b3be60405160405180910390a3600190506103ca565b600090505b929150505600a165627a7a723058206744c1b1dd3d16d2b9da622cf5c9a3fa367324caf8dc40de35a23b57b20b47fd0029",
  "source": "pragma solidity ^0.4.0;\ncontract SitesVotes{\n    mapping (uint=>bool) registro;\n    mapping (uint=>uint) voto;\n    mapping (address=>uint) escrutinio;\n    event Votar(uint indexed CC, address indexed escru);\n\n    function registroVotante(uint CC) public returns(bool) {\n        if(registro[CC]) return false;\n        registro[CC] = true;\n        voto[CC] = 1;\n        return true;\n    }\n\n    function votar(uint CC, address escru) public returns(bool)  {\n        if(registro[CC] && voto[CC]==1){\n            escrutinio[escru]+=voto[CC];\n            voto[CC]=0;\n            emit Votar(CC, escru);\n            return true;\n        }\n        return false;\n    }\n\n    function votantesResgistrados(uint CC) public view returns(bool,uint){\n        return (registro[CC],voto[CC]);\n    }\n\n    function balanceEscrutinio(address escru) public view returns(uint totalVotos){\n        return escrutinio[escru];\n    }\n\n}\n",
  "sourcePath": "/Users/josesanchez/codVotaciones/project/contracts/SitesVotes.sol",
  "compiler": {
    "name": "solc",
    "version": "0.4.24+commit.e67f0147.Emscripten.clang"
  },
  "schemaVersion": "2.0.0",
  "updatedAt": "2018-06-10T23:22:26.649Z"
}